S01C000053756374696F6E2070756D7020646973706C61792E737265632B
S11300000C9453260C9472260C9472260C9472262B
S11300100C9472260C9472260C9472260C947226FC
S11300200C9472260C9472260C9472260C947226EC
S11300300C9472260C9472260C9472260C947226DC
S11300400C9472260C9472260C9472260C947226CC
S11300500C9472260C9472260C9472260C947226BC
S11300600C9472260C9472260C9472260C947226AC
S11300700C9472260C9472260C9472260C9472269C
S11300800C9472260C9472260C9472260C9472268C
S11300900C9472260C9472260C9472260C9472267C
S11300A00C9472260C9472260C9472260C9472266C
S11300B00C9472260C9472260C9472260C9472265C
S11300C00C9472260C9472260C9472260C9472264C
S11300D00C9472260C9472260C9472260C9472263C
S11300E00C9472260C94722605A84CCDB2D44EB949
S11300F03836A9020C50B9918688083CA6AAAA2AC7
S1130100BE000000803F000000000000000000006E
S113011000000000000000000000000000000000DB
S113012000000000000000000000000000000000CB
S113013000000000000000000000000000000000BB
S113014000000000000000000000000000000000AB
S11307B00000000000000000000000000000150020
S11307C0000076000000A800000000000000000007
S11307D00000000000000000000000000000000015
S11307E00000000000000000000000000000000005
S11307F000000000000000000000000000000000F5
S113080000000000000000000000000000000000E4
S1130810000005000000EB000000AD000000DF0058
S11308200000E800000000000000000000000000DC
S113083000000000000000000000000000000000B4
S113084000000000000000000000000000000000A4
S11308500000000000000000000000000000000094
S113086000000000000000000000BB0000005D006C
S1130870000056000000AA000000B700000040007D
S11308800000000000000000000000000000000064
S11308900000000000000000000000000000000054
S11308A00000000000000000000000000000000044
S11308B000000000000000000000300000000B00F9
S11308C00000D6000000AB0000007A000000F50034
S11308D000005A000000D8000000000000000000E2
S11308E00000000000000000000000000000000004
S11308F000000000000000000000000000000000F4
S113090000000000000000000000000000000000E3
S1130910000038000000BA000000BB0000007500B1
S11309200000AB0000005B000000AD000000B70059
S11309300000400000000000000000000000000073
S113094000000000000000000000000000000000A3
S11309500000000000000000000000000000000093
S1130960000000000000000000001B0000006E00FA
S11309700000D5000000AE000000DD000000AD0066
S1130980000076000000DA000000A000000018005B
S11309900000000000000000000000000000000053
S11309A00000000000000000000000000000000043
S11309B00000000000000000000000000000000033
S11309C000001D000000B50000006E000000DB0008
S11309D000006A000000D6000000DB0000006D008B
S11309E00000DC00000038000000000000000000EF
S11309F000000000000000000000000000000000F3
S1130A0000000000000000000000000000000000E2
S1130A10000000000000000000005E000000D7009D
S1130A200000B50000006A000000AD0000007B007B
S1130A30000055000000B6000000B70000003000C0
S1130A4000000000000000000000000000000000A2
S1130A500000000000000000000000000000000092
S1130A600000000000000000000000000000000082
S1130A7000009D0000005A000000AD000000B60018
S1130A800000D7000000AA000000EE000000AB0048
S1130A9000006A000000F0000000000000000000F8
S1130AA00000000000000000000000000000000042
S1130AB00000000000000000000000000000000032
S1130AC0000000000000050000000F0000006B00A3
S1130AD000006B0000005B0000007A000000AD0025
S1130AE00000B5000000DD000000BD000000E000D3
S1130AF000000000000000000000000000000000F2
S1130B0000000000000000000000000000000000E1
S1130B1000000000000000000000000000001000C1
S1130B20000056000000DD000000BD000000D500FC
S1130B300000AD000000B6000000AD0000006A0037
S1130B400000D6000000E0000000000000000000EB
S1130B500000000000000000000000000000000091
S1130B600000000000000000000000000000000081
S1130B70000000000000250000002F0000006A00B3
S1130B800000D50000006E000000D6000000DB006D
S1130B90000076000000B70000005500000040008F
S1130BA00000000000000000000000000000000041
S1130BB00000000000000000000000000000000031
S1130BC00000000000000000000000000000880099
S1130BD0000087000000B700000056000000A800D5
S1130BE000000000000005000000AB000000AA00A7
S1130BF00000EF000000C000000000000000000042
S1130C0000000000000000000000000000000000E0
S1130C1000000000000000000000000000000000D0
S1130C2000000200000052000000530000005A00BF
S1130C300000E800000000000000000000000000C8
S1130C4000000A000000FB00000055000000C00086
S1130C500000000000000000000000000000000090
S1130C600000000000000000000000000000000080
S1130C70000000000000000000000400000021004B
S1130C8000000B000000EB0000000000000000006A
S1130C9000000000000000000000000000002D0023
S1130CA000007B0000008000000000000000000045
S1130CB00000000000000000000000000000000030
S1130CC00000000000000000000000000000000020
S1130CD00000110000004A00000053000000B400AE
S1130CE00000000000000000000000000000000000
S1130CF000000000000006000000CD00000080009D
S1130D0000000000000000000000000000000000DF
S1130D1000000000000000000000000000000000CF
S1130D200000000000000000000024000000840017
S1130D30000049000000C0000000000000000000A6
S1130D40000000000000000000000000000001009E
S1130D500000770000000000000000000000000018
S1130D60000000000000000000000000000000007F
S1130D70000000000000000000000000000000006F
S1130D8000008A00000029000000050000000000A7
S1130D90000000000000000000000000000000004F
S1130DA0000000000000000000001B000000000024
S1130DB0000000000000000000000000000000002F
S1130DC0000000000000000000000000000000001F
S1130DD000000000000001000000210000004200AB
S1130DE000005000000000000000000000000000AF
S1130DF000000000000000000000000000000000EF
S1130E0000000E00000000000000000000000000D0
S1130E1000000000000000000000000000000000CE
S1130E2000000000000000000000000000000400BA
S1130E3000004800000028000000800000000000BE
S1130E40000000000000000000000000000000009E
S1130E50000000000000000000000200000000008C
S1130E60000000000000000000000000000000007E
S1130E70000000000000000000000000000000006E
S1130E800000000000000200000095000000450082
S1130E90000000000000000000000000000000004E
S1130EA0000000000000000000000000000000003E
S1130EB0000000000000000000000000000000002E
S1130EC0000000000000000000000000000000001E
S1130ED000000000000000000000000000001400FA
S1130EE0000020000000900000000000000000004E
S1130EF000000000000000000000000000000000EE
S1130F0000000000000000000000000000000000DD
S1130F1000000000000000000000000000000000CD
S1130F2000000000000000000000000000000000BD
S1130F30000000000000220000008A0000000800F9
S1130F40000000000000000000000000000000009D
S1130F50000000000000000000000000000000008D
S1130F60000000000000000000000000000000007D
S1130F70000000000000000000000000000000006D
S1130F800000000000000000000000000000480015
S1130F90000044000000A000000000000000000069
S1130FA0000000000000000000000000000000003D
S1130FB0000000000000000000000000000000002D
S1130FC0000000000000000000000000000000001D
S1130FD0000000000000000000000000000000000D
S1130FE000000000000092000000910000000000DA
S1130FF000000200000004000000000000000000E7
S113100000000000000000000000000000000000DC
S113101000000000000000000000000000000000CC
S113102000000000000000000000000000000000BC
S11310300000000000000000000001000000240087
S113104000004A0000000000000003000000C4008B
S1131050000000000000000000000000000000008C
S1131060000000000000000000000000000000007C
S1131070000000000000000000000000000000006C
S1131080000000000000000000000000000000005C
S1131090000002000000090000002400000000001D
S11310A000000600000074000000000000000000C2
S11310B0000000000000000000000000000001002B
S11310C00000FC0000000000000000000000000020
S11310D0000000000000000000000000000000000C
S11310E000000000000000000000090000005000A3
S11310F0000088000000000000000400000014004C
S113110000000000000000000000000000000000DB
S11311100000000000000300000056000000000072
S113112000000000000000000000000000000000BB
S113113000000000000000000000000000000000AB
S11311400000040000002500000020000000000052
S11311500000060000001C00000000000000000069
S11311600000000000000000000000000000020079
S11311700000020000000000000000000000000069
S1131180000000000000000000000000000000005B
S113119000000000000000000000110000004200F8
S11311A000004000000000000000030000000C00EC
S11311B0000000000000000000000000000000002B
S11311C00000000000000300000002000000000016
S11311D0000000000000000000000000000000000B
S11311E000000000000000000000000000000000FB
S11311F000002400000014000000000000000000B3
S11312000000410000000000000000000000000099
S113121000000000000000000000000000000200C8
S113122000000600000000000000000000000000B4
S113123000000000000000000000000000000000AA
S1131240000000000000000000004A000000A100AF
S11312500000000000000000000001000000F00099
S1131260000000000000000000000000000000007A
S113127000000000000001000000FC00000000006D
S1131280000000000000000000000000000000005A
S1131290000000000000000000000000000000004A
S11312A00000900000004A00000000000000000060
S11312B00000060000005C000000000000000000C8
S11312C0000000000000000000000000000000001A
S11312D000002000000000000000000000000000EA
S11312E000000000000000000000000000000000FA
S11312F000000000000001000000050000001000D4
S113130000000000000000000000040000000400D1
S113131000000000000000000000000000000000C9
S113132000000000000000000000000000000000B9
S113133000000000000000000000000000000000A9
S11313400000000000000000000000000000000099
S11313500000A8000000A40000000000000000003D
S1131360000006000000040000000000000000006F
S11313700000000000000000000000000000000069
S11313800000000000000000000000000000000059
S11313900000000000000000000000000000000049
S11313A00000000000000500000004000000100020
S11313B000000000000000000000060000000C0017
S11313C00000000000000000000000000000000019
S11313D00000000000000000000000000000000009
S11313E000000000000000000000000000000000F9
S11313F000000000000000000000000000000000E9
S1131400000052000000A0000000000000000000E6
S1131410000003000000F8000000000000000000CD
S113142000000000000000000000000000000000B8
S113143000000000000000000000000000000000A8
S11314400000000000000000000000000000000098
S11314500000000000000A00000088000000800076
S11314600000000000000000000000000000400038
S11314700000000000000000000000000000000068
S11314800000000000000000000000000000000058
S11314900000000000000000000000000000000048
S11314A00000000000000000000000000000110027
S11314B00000240000000000000000000000000004
S11314C00000000000000000000000000000000018
S11314D00000000000000000000000000000000008
S11314E000000000000000000000000000000000F8
S11314F000000000000000000000000000000000E8
S11315000000000000000A0000001200000080003B
S113151000000000000000000000000000000400C3
S113152000000000000000000000000000000000B7
S113153000000000000000000000000000000000A7
S11315400000000000000000000000000000000097
S11315500000000000000000000000000000200067
S11315600000A400000000000000000000000000D3
S11315700000000000000400000000000000000063
S11315800000000000000000000000000000000057
S11315900000000000000000000000000000000047
S11315A00000000000000000000000000000000037
S11315B00000000000002A000000480000000000B5
S11315C00000000000000000000003000000F00024
S11315D00000000000000000000000000000000007
S11315E000000000000000000000000000000000F7
S11315F000000000000000000000000000000000E7
S11316000000000000000000000000000000840052
S11316100000840000000000000000000000000042
S11316200000060000002C00000000000000000084
S113163000000000000000000000000000000000A6
S11316400000000000000000000000000000000096
S11316500000000000000000000000000000000086
S11316600000000000002800000028000000000026
S1131670000000000000000000000400000004005E
S11316800000000000000000000000000000000056
S11316900000000000000000000000000000000046
S11316A00000000000000000000000000000000036
S11316B000000000000000000000010000004200E3
S11316C00000900000000000000000000000000086
S11316D000000600000004000000000000000000FC
S11316E000000000000000000000000000000000F6
S11316F000000000000000000000000000000000E6
S113170000000000000000000000000000000000D5
S11317100000000000001400000040000000000071
S113172000000000000000000000060000000C00A3
S113173000000000000000000000000000000000A5
S11317400000000000000000000000000000000095
S11317500000000000000000000000000000000085
S11317600000000000000000000002000000A200D1
S113177000009000000000000000000000000000D5
S1131780000003000000F80000000000000000005A
S11317900000000000000000000000000000000045
S11317A00000000000000000000000000000000035
S11317B00000000000000000000000000000000025
S11317C000000100000010000000400000000000C4
S11317D000000000000000000000000000004000C5
S11317E000000000000000000000000000000000F5
S11317F000000000000000000000000000000000E5
S113180000000000000000000000000000000000D4
S113181000000000000000000000040000008A0036
S11318200000800000000000000000000000000034
S113183000000000000000000000000000000000A4
S11318400000000000000000000000000000000094
S11318500000000000000000000000000000000084
S11318600000000000000000000000000000000074
S11318700000020000005100000000000000000011
S11318800000000000000000000000000000000054
S11318900000000000000000000000000000000044
S11318A00000000000000000000000000000000034
S11318B00000000000000000000000000000000024
S11318C00000000000000000000009000000080003
S11318D00000000000000000000000000000000004
S11318E000000000000000000000000000000000F4
S11318F000000000000000000000000000000000E4
S113190000000000000000000000000000000000D3
S113191000000000000000000000000000000000C3
S113192000001200000052000000800000000000CF
S113193000000000000000000000000000000000A3
S11319400000000000000000000000000000000093
S11319500000000000000000000000000000000083
S11319600000000000000000000000000000000073
S113197000000000000000000000080000008900D2
S11319800000000000000000000000000000000053
S11319900000000000000000000000000000000043
S11319A00000000000000000000000000000000033
S11319B00000000000000000000000000000000023
S11319C00000000000000000000000000000020011
S11319D000001200000024000000010000000000CC
S11319E000000000000000000000000000000000F3
S11319F000000000000000000000000000000000E3
S1131A0000000000000000000000000000000000D2
S1131A1000000000000000000000000000000000C2
S1131A2000000000000003000000C90000001000D6
S1131A3000000100000000000000000000000000A1
S1131A400000000000000000000000000000000092
S1131A500000000000000000000000000000000082
S1131A600000000000000000000000000000000072
S1131A70000000000000000000000000000003005F
S1131A800000F4000000A40000007F000000E0005B
S1131A900000000000000000000000000000000042
S1131AA00000000000000000000000000000000032
S1131AB00000000000000000000000000000000022
S1131AC00000000000000000000000000000000012
S1131AD0000000000000000000007D00000008007D
S1131AE00000710000008000000000000000000001
S1131AF000000000000000000000000000000000E2
S1131B0000000000000000000000000000000000D1
S1131B1000000000000000000000000000000000C1
S1131B2000000000000000000000000000000000B1
S1131B3000001F000000A0000000190000000000C9
S1131B400000000000000000000000000000000091
S1131B500000000000000000000000000000000081
S1131B600000000000000000000000000000000071
S1131B700000000000000000000000000000000061
S1131B8000000000000000000000A5000000F000BC
S1131B9000000D0000000000000000000000000034
S1131BA00000000000000000000000000000000031
S1131BB00000000000000000000000000000000021
S1131BC00000000000000000000000000000000011
S1131BD00000000000000000000000000000000001
S1131BE0000002000000F800000003000000800074
S1131BF000000000000000000000000000000000E1
S1131C0000000000000000000000000000000000D0
S1131C1000000000000000000000000000000000C0
S1131C2000000000000000000000000000000000B0
S1131C3000000000000000000000A90000003000C7
S1131C40000001000000000000000000000000008F
S1131C500000000000000000000000000000000080
S1131C600000000000000000000000000000000070
S1131C700000000000000000000000000000000060
S1131C80000000000000000000000000000001004F
S1131C9000001400000040000000000000000000EC
S1131CA00000000000000000000000000000000030
S1131CB00000000000000000000000000000000020
S1131CC00000000000000000000000000000000010
S1131CD00000000000000000000000000000000000
S1131CE000000000000000000000A200000000004E
S1131CF000001F00000000000000000000000000C1
S1131D0000000000000000000000000000000000CF
S1131D1000000000000000000000000000000000BF
S1131D2000000000000000000000000000000000AF
S1131D30000000000000000000000000000001009E
S1131D400000090000004000000072000000C00014
S1131D50000000000000000000000000000000007F
S1131D60000000000000000000000000000000006F
S1131D70000000000000000000000000000000005F
S1131D80000000000000000000000000000000004F
S1131D9000000000000000000000A000000080001F
S1131DA000004000000040000000000000000000AF
S1131DB0000000000000000000000000000000001F
S1131DC0000000000000000000000000000000000F
S1131DD000000000000000000000000000000000FF
S1131DE000000000000000000000000000000200ED
S1131DF0000015000000000000006000000040002A
S1131E0000000000000000000000000000000000CE
S1131E1000000000000000000000000000000000BE
S1131E2000000000000000000000000000000000AE
S1131E30000000000000000000000000000000009E
S1131E40000000000000010000004200000040000B
S1131E50000040000000C00000000000000000007E
S1131E60000000000000000000000000000000006E
S1131E70000000000000000000000000000000005E
S1131E80000000000000000000000000000000004E
S1131E90000000000000000000000000000004003A
S1131EA0000028000000800000003F0000008000C7
S1131EB0000000000000000000000000000000001E
S1131EC0000000000000000000000000000000000E
S1131ED000000000000000000000000000000000FE
S1131EE000000000000000000000000000000000EE
S1131EF00000000000000200000084000000000058
S1131F0000000400000000000000000000000000C9
S1131F1000000000000000000000000000000000BD
S1131F2000000000000000000000000000000000AD
S1131F30000000000000000000000000000000009D
S1131F40000000000000000000000000000001008C
S1131F500000290000000000000000000000C00094
S1131F60000000000000000000000000000000006D
S1131F70000000000000000000000000000000005D
S1131F80000000000000000000000000000000004D
S1131F90000000000000000000000000000000003D
S1131FA00000000000000400000092000000000097
S1131FB0000000000000000000000000000000001D
S1131FC0000000000000000000000000000000000D
S1131FD000000000000000000000000000000000FD
S1131FE000000000000000000000000000000000ED
S1131FF000000000000000000000000000000200DB
S11320000000440000008000000000000000000008
S113201000000000000000000000000000000000BC
S113202000000000000000000000000000000000AC
S1132030000000000000000000000000000000009C
S1132040000000000000000000000000000000008C
S11320500000000000000900000011000000000062
S113206000003F000000000000000000000000002D
S1132070000000000000000000000000000000005C
S1132080000000000000000000000000000000004C
S1132090000000000000000000000000000000003C
S11320A00000000000000000000000000000040028
S11320B000004A0000000000000069000000C000A9
S11320C0000000000000000000000000000000000C
S11320D000000000000000000000000000000000FC
S11320E000000000000000000000000000000000EC
S11320F000000000000000000000000000000000DC
S11321000000000000000200000090000000000039
S1132110000040000000400000000000000000003B
S113212000000000000000000000000000000000AB
S1132130000000000000000000000000000000009B
S1132140000000000000000000000000000000008B
S11321500000000000000000000000000000140067
S113216000002400000000000000400000004000C7
S1132170000000000000000000000000000000005B
S1132180000000000000000000000000000000004B
S1132190000000000000000000000000000000003B
S11321A0000000000000000000000000000000002B
S11321B000000000000001000000420000000000D8
S11321C0000060000000C0000000000000000000EB
S11321D000000000000000000000000000000000FB
S11321E000000000000000000000000000000000EB
S11321F000000000000000000000000000000000DB
S113220000000000000000000000000000001400B6
S1132210000014000000000000003F0000008000E7
S113222000000000000000000000000000000000AA
S1132230000000000000000000000000000000009A
S1132240000000000000000000000000000000008A
S1132250000000000000000000000000000000007A
S113226000000000000002000000A20000000000C6
S11322700000040000000000000000000000000056
S1132280000000000000000000000000000000004A
S1132290000000000000000000000000000000003A
S11322A0000000000000000000000000000000002A
S11322B00000000000000000000000000000140006
S11322C000001400000000000000000000000000F6
S11322D000000000000000000000000000000000FA
S11322E000000000000000000000000000000000EA
S11322F0000000000000FE000000000000000000DC
S113230000000000000000000000000000000000C9
S113231000000000000002000000A0000000000017
S113232000000000000000000000000000000000A9
S11323300000000000000000000000000000000099
S113234000000000000000000000000000004C003D
S11323500000000000000000000000000000000079
S11323600000000000000000000000000000140055
S11323700000140000000000000000000000000045
S11323800000000000000000000000000000000049
S11323900000000000000000000000000000000039
S11323A000000000000082000000000000000000A7
S11323B00000000000000000000000000000000019
S11323C000000000000002000000A0000000000067
S11323D000000000000000000000000000000000F9
S11323E000000000000000000000000000000000E9
S11323F00000000000000000000000000000820057
S113240000000000000000000000000000000000C8
S113241000000000000000000000000000001400A4
S113242000000A000000000000000000000000009E
S11324300000000000000000000000000000000098
S11324400000000000000000000000000000000088
S1132450000000000000C6000000000000000000B2
S11324600000000000000000000000000000000068
S113247000000000000011000000500000000000F7
S11324800000000000000000000000000000000048
S11324900000000000000000000000000000000038
S11324A000000000000000000000000000007C00AC
S11324B00000000000000000000000000000000018
S11324C00000000000000000000000000000040004
S11324D00000880000000000000000000000000070
S11324E000000000000000000000000000000000E8
S11324F000000000000000000000000000000000D8
S113250000000000000010000000000000000000B7
S113251000000000000000000000000000000000B7
S1132520000000000000290000002400000000005A
S11325300000000000000000000000000000000097
S11325400000000000000000000000000000000087
S11325500000000000000000000000000000400037
S11325600000000000000000000000000000000067
S11325700000000000000000000000000000040053
S11325800000100000000000000000000000000037
S11325900000000000000000000000000000000037
S11325A00000000000000000000000000000000027
S11325B0000001000000E000000000000000000036
S11325C00000000000000000000000000000000007
S11325D0000000000000110000004800000000009E
S11325E000000000000000000000000000000000E7
S11325F000000000000000000000000000000000D7
S113260000000000000000000000030000002000A3
S113261000000000000000000000000000000000B6
S113262000000000000000000000000000000A009C
S11326300000200000000000000000000000000076
S11326400000000000000000000000000000000086
S11326500000000000000000000000000000000076
S11326600000010000001000000000000000000055
S11326700000000000000000000000000000000056
S113268000000000000021000000480000000000DD
S11326900000000000000000000000000000000036
S11326A00000000000000000000000000000000026
S11326B000000000000000000000020000003000E4
S11326C00000000000000000000000000000000006
S11326D000000000000000000000000000001400E2
S11326E000002400000000000000000000000000C2
S11326F000000000000000000000000000000000D6
S113270000000000000000000000000000000000C5
S1132710000001000000FE000000000000000000B6
S113272000000000000000000000000000000000A5
S1132730000000000000020000008800000000000B
S11327400000000000000000000000000000000085
S11327500000000000000000000000000000000075
S11327600000000000000000000001000000020062
S11327700000000000000000000000000000000055
S1132780000000000000000000000000000028001D
S113279000005000000000000000000000000000E5
S11327A00000000000000000000000000000000025
S11327B00000000000000000000000000000000015
S11327C0000000000000D80000000000000000002D
S11327D000000000000000000000000000000000F5
S11327E000000000000005000000040000000000DC
S11327F000000000000000000000000000000000D5
S113280000000000000000000000000000000000C4
S11328100000000000000000000003000000EE00C3
S113282000000000000000000000000000000000A4
S11328300000000000000000000000000000110083
S11328400000500000000000000000000000000034
S11328500000000000000000000000000000000074
S11328600000000000000000000000000000000064
S1132870000000000000D000000000000000000084
S11328800000000000000000000000000000000044
S11328900000000000000A00000008000000000022
S11328A00000000000000000000000000000000024
S11328B00000000000000000000000000000000014
S11328C000000000000000000000000000003800CC
S11328D000000000000000000000000000000000F4
S11328E000000000000000000000000000002000C4
S11328F00000A4000000010000003C0000000000F3
S113290000000000000000000000000000000000C3
S113291000000000000000000000000000000000B3
S1132920000000000000060000000000000000009D
S11329300000000000000000000000000000000093
S11329400000000000000A0000004800000003002E
S1132950000066000000000000000000000000000D
S11329600000000000000000000000000000000063
S113297000000000000000000000000000000C0047
S11329800000000000000000000000000000000043
S11329900000000000000000000000000000110022
S11329A000001000000002000000420000000000CF
S11329B00000000000000000000000000000000013
S11329C00000000000000000000000000000000003
S11329D000000000000030000000000000000000C3
S11329E000000000000000000000000000000000E3
S11329F000000000000008000000A4000000020025
S1132A000000420000000000000000000000000080
S1132A1000000000000000000000000000000000B2
S1132A200000000000000000000001000000E000C1
S1132A300000000000000000000000000000000092
S1132A40000000000000000000000000000005007D
S1132A500000080000000300000026000000000041
S1132A600000000000000000000000000000000062
S1132A700000000000000000000000000000000052
S1132A80000001000000FE00000000000000000043
S1132A900000000000000000000000000000000032
S1132AA000000000000010000000520000000000C0
S1132AB00000FC0000000000000000000000000016
S1132AC00000000000000000000000000000000002
S1132AD000000000000000000000000000000400EE
S1132AE000000000000000000000000000000000E2
S1132AF000000000000000000000000000000A00C8
S1132B00000084000000000000002000000000001D
S1132B1000000000000000000000000000000000B1
S1132B2000000000000000000000000000000000A1
S1132B300000000000000000000000000000000091
S1132B400000000000000000000000000000000081
S1132B500000000000000100000028000000000048
S1132B600000000000000000000000000000000061
S1132B700000000000000000000000000000000051
S1132B800000000000000000000000000000000041
S1132B900000000000000000000000000000000031
S1132BA0000000000000000000000000000014000D
S1132BB000004400000000000000F80000000000D5
S1132BC00000000000000000000000000000000001
S1132BD000000000000000000000000000000000F1
S1132BE000000000000000000000000000000000E1
S1132BF000000000000000000000000000000000D1
S1132C000000000000000200000022000000030099
S1132C1000008E0000000000000000000000000022
S1132C2000000000000000000000000000000000A0
S1132C300000000000000000000000000000000090
S1132C400000000000000000000000000000000080
S1132C500000000000000000000000000000090067
S1132C600000490000000200000002000000000013
S1132C700000000000000000000000000000000050
S1132C800000000000000000000000000000000040
S1132C900000000000000000000000000000000030
S1132CA00000000000000000000000000000000020
S1132CB000000000000004000000240000000300E5
S1132CC000000200000000000000000000000000FE
S1132CD000000000000000000000000000000000F0
S1132CE000000000000000000000000000000000E0
S1132CF000000000000000000000000000000000D0
S1132D0000000000000000000000000000000200BD
S1132D100000920000000300000006000000000014
S1132D20000000000000000000000000000000009F
S1132D30000000000000000000000000000000008F
S1132D40000000000000000000000000000000007F
S1132D50000000000000000000000000000000006F
S1132D600000000000000800000044000000810092
S1132D700000FC0000000000000000000000000053
S1132D80000000000000000000000000000000003F
S1132D90000000000000000000000000000000002F
S1132DA0000000000000000000000000000000001F
S1132DB0000000000000000000000000000005000A
S1132DC000002100000000000000200000000000BE
S1132DD000000000000000000000000000000000EF
S1132DE000000000000000000000000000000000DF
S1132DF000000000000000000000000000000000CF
S1132E0000000000000000000000000000000000BE
S1132E10000000000000000000009400000000001A
S1132E200000060000000000000000000000000098
S1132E30000000000000000000000000000000008E
S1132E40000000000000000000000000000000007E
S1132E50000000000000000000000000000000006E
S1132E600000000000000000000000000000050059
S1132E700000090000000000000000000000000045
S1132E80000000000000000000000000000000003E
S1132E90000000000000000000000000000000002E
S1132EA0000000000000000000000000000000001E
S1132EB0000000000000000000000000000000000E
S1132EC000000000000000000000A40000008000DA
S1132ED000000000000000000000000000000000EE
S1132EE000000000000000000000000000000000DE
S1132EF000000000000000000000000000000000CE
S1132F0000000000000000000000000000000000BD
S1132F1000000000000000000000000000000200AB
S1132F2000001100000041000000F8000000000053
S1132F30000000000000000000000000000000008D
S1132F40000000000000000000000000000000007D
S1132F50000000000000000000000000000000006D
S1132F60000000000000000000000000000000005D
S1132F700000000000000100000048000000030001
S1132F800000160000000000000000000000000027
S1132F90000000000000000000000000000000002D
S1132FA0000000000000000000000000000000001D
S1132FB0000000000000000000000000000000000D
S1132FC000000000000000000000000000000200FB
S1132FD00000250000004200000002000000000084
S1132FE000000000000000000000000000000000DD
S1132FF000000000000000000000000000000000CD
S113300000000000000000000000000000000000BC
S113301000000000000000000000000000000000AC
S113302000000000000000000000910000002300E8
S1133030000002000000000000000000000000008A
S1133040000000000000000000000000000000007C
S1133050000000000000000000000000000000006C
S1133060000000000000000000000000000000005C
S1133070000000000000000000000000000001004B
S113308000002400000043000000060000000000CF
S1133090000000000000000000000000000000002C
S11330A0000000000000000000000000000000001C
S11330B0000000000000000000000000000000000C
S11330C000000000000000000000000000000000FC
S11330D00000000000000000000089000000100053
S11330E00000FC00000000000000000000000000E0
S11330F000000000000000000000000000000000CC
S113310000000000000000000000000000000000BB
S113311000000000000000000000000000000000AB
S1133120000000000000000000000000000000009B
S1133130000044000000F000000050000000000007
S1133140000000000000000000000000000000007B
S1133150000000000000000000000000000000006B
S1133160000000000000000000000000000000005B
S1133170000000000000000000000000000000004B
S1133180000000000000010000002B000000F80017
S1133190000000000000000000000000000000002B
S11331A0000000000000000000000000000000001B
S11331B0000000000000000000000000000000000B
S11331C000000000000000000000000000000000FB
S11331D000000000000000000000000000000000EB
S11331E000004F000000800000000000000000000C
S11331F000000000000000000000000000000000CB
S113320000000000000000000000000000000000BA
S113321000000000000000000000000000000000AA
S1133220000000000000000000000000000000009A
S1133230000000000000000000003D0000005000FD
S1133240000000000000000000000000000000007A
S1133250000000000000000000000000000000006A
S1133260000000000000000000000000000000005A
S1133270000000000000000000000000000000004A
S11332800000000000000000000000000000010039
S11332900000F8000000080000000000000000002A
S11332A0000000000000000000000000000000001A
S11332B0000000000000000000000000000000000A
S11332C000000000000000000000000000000000FA
S11332D000000000000000000000000000000000EA
S11332E000000000000007000000E500000054009A
S11332F000000000000000000000000000000000CA
S113330000000000000000000000000000000000B9
S113331000000000000000000000000000000000A9
S11333200000000000000000000000000000000099
S11333300000000000000000000000000000030086
S11333400000110000002000000000000000000048
S11333500000000000000000000000000000000069
S11333600000000000000000000000000000000059
S11333700000000000000000000000000000000049
S11333800000000000000000000000000000000039
S1133390000000000000000000000A0000004A00D5
S11333A00000000000000000000000000000000019
S11333B00000000000000000000000000000000009
S11333C000000000000000000000000000000000F9
S11333D000000000000000000000000000000000E9
S11333E000000000000000000000000000000000D9
S11333F000001100000011000000000000000000A7
S113340000000000000000000000000000000000B8
S113341000000000000000000000000000000000A8
S11334200000000000000000000000000000000098
S11334300000000000000000000000000000000088
S11334400000000000000000000004000000440030
S11334500000000000000000000000000000000068
S11334600000000000000000000000000000000058
S11334700000000000000000000000000000000048
S11334800000000000000000000000000000000038
S11334900000000000000000000000000000000028
S11334A000000900000029000000000000000000E6
S11334B00000000000000000000000000000000008
S11334C000000000000000000000000000000000F8
S11334D000000000000000000000000000000000E8
S11334E000000000000000000000000000000000D8
S11334F00000000000000000000004000000840040
S11335000000800000000000000000000000000037
S113351000000000000000000000000000000000A7
S11335200000000000000000000000000000000097
S11335300000000000000000000000000000000087
S11335400000000000000000000000000000000077
S11335500000020000002200000040000000000003
S11335600000000000000000000000000000000057
S11335700000000000000000000000000000000047
S11335800000000000000000000000000000000037
S11335900000000000000000000000000000000027
S11335A00000000000000000000000000000940083
S11335B000004000000000000000000000000000C7
S11335C000000000000000000000000000000000F7
S11335D000000000000000000000000000000000E7
S11335E000000000000000000000000000000000D7
S11335F000000000000000000000000000000000C7
S11336000000050000002100000020000000000070
S113361000000000000000000000000000000000A6
S11336200000000000000000000000000000000096
S11336300000000000000000000000000000000086
S11336400000000000000000000000000000000076
S113365000000000000000000000000000004A001C
S1133660000048000000000000000000000000000E
S11336700000000000000000000000000000000046
S11336800000000000000000000000000000000036
S11336900000000000000000000000000000000026
S11336A00000000000000000000000000000000016
S11336B000000100000011000000100000000000E4
S11336C000000000000000000000000000000000F6
S11336D000000000000000000000000000000000E6
S11336E000000000000000000000000000000000D6
S11336F000000000000000000000000000000000C6
S11337000000000000000000000000000000A40011
S11337100000440000000000000000000000000061
S11337200000000000009C000000000000000000F9
S11337300000000000000000000000000000000085
S11337400000000000000000000000000000000075
S11337500000000000000000000000000000000065
S1133760000000000000090000002000000000002C
S11337700000000000000000000003000000F6004C
S11337800000000000000000000000000000000035
S11337900000000000000000000000000000000025
S11337A00000000000000000000000000000000015
S11337B000000000000000000000000000005200B3
S11337C000004A00000000000000000000000000AB
S11337D000000200000022000000000000000000C1
S11337E000000000000000000000000000000000D5
S11337F000000000000000000000000000000000C5
S113380000000000000000000000000000000000B4
S1133810000000000000080000009100000000000B
S11338200000000000000000000002000000220070
S11338300000000000000000000000000000000084
S11338400000000000000000000000000000000074
S11338500000000000000000000000000000000064
S11338600000000000000000000000000000220032
S113387000002400000080000000000000000000A0
S113388000000200000062000000000000000000D0
S1133890000000000000000000000000000007001D
S11338A00000FC0000000000000000000000000018
S11338B00000000000000000000000000000000004
S11338C0000000000000090000000A0000000000E1
S11338D00000000000000000000001000000DE0005
S11338E000000000000000000000000000000000D4
S11338F000000000000002000000000000000000C2
S113390000000000000000000000000000000000B3
S1133910000000000000000000000000000004009F
S11339200000A0000000A000000000000000000053
S11339300000000000000000000000000000000083
S11339400000000000000000000000000000000073
S11339500000000000000000000000000000000063
S11339600000000000000000000000000000000053
S11339700000000000000900000015000000000025
S11339800000000000000000000000000000000033
S11339900000000000000000000000000000000023
S11339A00000000000000000000000000000000013
S11339B00000000000000000000000000000000003
S11339C000000000000000000000000000000200F1
S11339D00000420000005000000000000000000051
S11339E0000000000000F8000000000000000000DB
S11339F000000000000000000000000000000000C3
S1133A0000000C00000000000000000000000000A6
S1133A1000000000000000000000000000000000A2
S1133A2000000000000000000000940000004800B6
S1133A3000000000000000000000010000009E00E3
S1133A400000000000000000000000000000000072
S1133A50000000000000000000000400000000005E
S1133A600000000000000000000000000000000052
S1133A700000000000000000000000000000010041
S1133A8000002100000024000000000000000000ED
S1133A90000003000000020000000000000000001D
S1133AA00000000000000000000000000000010011
S1133AB00000F00000000000000000000000000012
S1133AC000000000000000000000000000000000F2
S1133AD0000000000000000000004A000000420056
S1133AE000000000000000000000020000000200CE
S1133AF000000000000000000000000000000000C2
S1133B00000000000000070000005C00000000004E
S1133B1000000000000000000000000000000000A1
S1133B200000000000000000000000000000000091
S1133B30000021000000150000000000000000004B
S1133B400000030000000600000000000000000068
S1133B50000000000000000000000000000004005D
S1133B60000004000000000000000000000000004D
S1133B700000000000000000000000000000000041
S1133B8000000000000000000000140000005000CD
S1133B900000A00000000000000000000000FC0085
S1133BA00000000000000000000000000000000011
S1133BB000000000000004000000040000000000F9
S1133BC000000000000000000000000000000000F1
S1133BD000000000000000000000000000000000E1
S1133BE0000042000000850000000000000000000A
S1133BF00000000000004000000000000000000081
S1133C0000000000000000000000000000000600AA
S1133C1000000C0000000000000000000000000094
S1133C200000000000000000000000000000000090
S1133C30000000000000000000001400000050001C
S1133C400000A000000000000000000000000600CA
S1133C500000000000000000000000000000000060
S1133C6000000000000003000000F8000000000055
S1133C700000000000000000000000000000000040
S1133C800000000000000000000000000000000030
S1133C900000020000008A00000014000000000080
S1133CA00000000000000000000000000000000010
S1133CB00000000000000000000000000000000000
S1133CC000002000000000000000000000000000D0
S1133CD000000000000000000000000000000000E0
S1133CE000000000000000000000000000002100AF
S1133CF00000480000000000000000000000000078
S1133D0000000000000000000000000000000000AF
S1133D10000000000000000000000000000000009F
S1133D20000000000000000000000000000000008F
S1133D30000000000000000000000000000000007F
S1133D4000000200000094000000250000000000B4
S1133D50000000000000F800000000000000000067
S1133D60000000000000000000000000000000004F
S1133D7000004000000000000000000000000000FF
S1133D80000000000000000000000000000000002F
S1133D9000000000000000000000000000004200DD
S1133DA00000900000008000000003000000960066
S1133DB000000000000000000000000000000000FF
S1133DC000000000000000000000400000000000AF
S1133DD000000000000000000000000000000000DF
S1133DE000000000000000000000000000000000CF
S1133DF000000000000094000000450000002000C6
S1133E0000000200000002000000000000000000AA
S1133E10000000000000000000000000000000009E
S1133E20000040000000000000000000000000004E
S1133E30000000000000000000000000000000007E
S1133E40000000000000000000000000000011005D
S1133E50000028000000940000000200000002009E
S1133E60000000000000000000000000000000004E
S1133E7000000000000000000000400000000000FE
S1133E80000000000000000000000000000000002E
S1133E90000000000000000000000000000000001E
S1133EA00000000000000A00000044000000400080
S1133EB000000300000006000000000000000000F5
S1133EC000000000000000000000000000000000EE
S1133ED0000040000000000000000000000000009E
S1133EE000000000000000000000000000000000CE
S1133EF000000000000000000000000000000100BD
S1133F000000120000009500000041000000FC00C9
S1133F10000000000000000000000000000000009D
S1133F20000000000000000000000000000000008D
S1133F30000000000000000000000000000000007D
S1133F40000000000000000000000000000000006D
S1133F500000000000000800000088000000480085
S1133F6000008000000020000000000000000000AD
S1133F70000000000000000000000000000000003D
S1133F800000060000000000000000000000000027
S1133F90000000000000000000000000000000001D
S1133FA0000000000000000000000000000002000B
S1133FB00000520000002200000028000000000061
S1133FC000000000000000000000000000000000ED
S1133FD000000000000000000000160000000000C7
S1133FE000000000000000000000000000000000CD
S1133FF000000000000000000000000000000000BD
S1134000000000000000000000000900000049005A
S113401000002200000080000000000000000000FA
S1134020000000000000000000000000000000008C
S11340300000570000000000000000000000000025
S1134040000000000000000000000000000000006C
S1134050000000000000000000000000000000005C
S11340600000520000002400000089000000D0007D
S1134070000000000000000000000000000000003C
S1134080000000000000010000002B000000000000
S1134090000000000000000000000000000000001C
S11340A0000000000000000000000000000000000C
S11340B0000000000000000000000800000088006C
S11340C0000055000000A4000000000000000000F3
S11340D000000000000000000000000000000A00D2
S11340E00000AB00000080000000000000000000A1
S11340F000000000000000000000000000000000BC
S113410000000000000000000000000000000000AB
S11341100000020000005200000083000000AA001A
S11341200000A000000000000000000000000000EB
S11341300000000000005500000055000000800051
S1134140000000000000000000000000000000006B
S1134150000000000000000000000000000000005B
S11341600000000000000000000001000000040046
S113417000002B000000AA000000940000000000D2
S1134180000000000000000000000A000000A4007D
S11341900000930000008000000000000000000008
S11341A0000000000000000000000000000000000B
S11341B000000000000000000000000000000000FB
S11341C0000000000000510000004700000024002F
S11341D00000AA000000A00000000000000004008D
S11341E00000A50000005500000055000000C000BC
S11341F000000000000000000000000000000000BB
S113420000000000000000000000000000000000AA
S113421000000000000000000000000000002A0070
S113422000002B00000055000000520000009B001D
S113423000005500000055000000540000009400E8
S11342400000AA000000C000000000000000000000
S1134250000000000000000000000000000000005A
S1134260000000000000000000000000000000004A
S1134270000000000000010000000E000000AA0081
S11342800000AA0000004900000052000000AA003B
S11342900000AA000000AA000000910000006000D5
S11342A0000000000000000000000000000000000A
S11342B000000000000000000000000000000000FA
S11342C000000000000000000000000000000400E6
S11342D00000AE00000092000000490000005500FC
S11342E000002A000000520000004A0000004900BB
S11342F000004D000000600000000000000000000D
S113430000000000000000000000000000000000A9
S11343100000000000000000000000000000000099
S1134320000000000000000000004D0000005500E7
S113433000005500000054000000A90000004A00DD
S11343400000A90000005500000052000000F00029
S11343500000000000000000000000000000000059
S11343600000000000000000000000000000000049
S11343700000000000000000000000000000000039
S113438000002D0000004A000000550000004A0013
S113439000009500000055000000250000002A00E0
S11343A00000540000003000000000000000000085
S11343B000000000000000000000000000000000F9
S11343C000000000000000000000000000000000E9
S11343D0000000000000000000001C000000A90014
S11343E00000490000002A000000A5000000290088
S11343F000005500000052000000A000000038003A
S113440000000000000000000000000000000000A8
S11344100000000000000000000000000000000098
S11344200000000000000000000000000000000088
S11344300000190000005500000055000000520063
S1134440000054000000A500000054000000AA0071
S113445000004800000018000000000000000000F8
S11344600000000000000000000000000000000048
S11344700000000000000000000000000000000038
S113448000000000000000000000380000000A00E6
S11344900000490000004A000000AA000000AA0031
S11344A000009200000092000000000000000000E4
S11344B000000000000000000000000000000000F8
S11344C000000000000000000000000000000000E8
S11344D000000000000000000000000000000000D8
S11344E000003000000001000000550000002A0018
S11344F000009500000054000000AA0000005000D5
S113450000000000000000000000000000000000A7
S11345100000000000000000000000000000000097
S11345200000000000000000000000000000000087
S11345300000000000000000000000000000000077
S113454000002A000000A9000000520000004A00F8
S11345500000AA000000800000000000000000002D
S11345600000000000000000000000000000000047
S11345700000000000000000000000000000000037
S11345800000000000000000000000000000000027
S11345900000000000000000000000000000A50072
S11345A000002A000000A900000000000000000034
S11345B000000000000000000000000000000000F7
S11345C000000000000000000000000000000000E7
S11345D000000000000000000000000000000000D7
S11345E000000000000000000000000000000000C7
S11345F00000000000000000000084000000000033
S113460000000000000000000000000000000000A6
S11346100000000000000000000000000000000096
S11346200000000000000000000000000000000086
S11346300000000000000000000000000000000076
S1134CA000000000000011241FBECFEFCDBFDFE7DE
S1134CB0DEBF10E4A0E0B0E4E2E8FCE500E00BBFF6
S1134CC002C007900D92A230B107D9F720E4A2E008
S1134CD0B0E401C01D92A134B207E1F70E946D2A2D
S1134CE00C943F2E0C940000E0E0F4E0808180619D
S1134CF0808380818F7D80838081806480838081B4
S1134D008068808380E88583E0E4F9E080818062C4
S1134D108083808181618083089580934409809198
S1134D2043098823E4F78091440908950E948D265D
S1134D3008950E9496260895CF93C82F80E180930A
S1134D40460480E00E9499268C2F0E949926CF91D8
S1134D500895CF93C82F80E180934504892F0E9442
S1134D6099268C2F0E949926CF910895CF93DF9393
S1134D70EB010E949C26CE010E94A926DF91CF91CF
S1134D800895EF92FF920F931F93CF93DF938C01BB
S1134D90EB017901BA0186E30E94B626B80187E3E4
S1134DA00E94B626B70188E30E94B626BE0189E3B5
S1134DB00E94B626B80180E20E94B626BE0181E2B6
S1134DC00E94B62682E20E949C26DF91CF911F9119
S1134DD00F91FF90EF900895CF93DF93837090E04D
S1134DE08093394090933A409C012170332780FF8F
S1134DF005C040913B4050913C4004C04091374035
S1134E005091384040933F4050934040232B29F029
S1134E10209137403091384004C020913B4030917C
S1134E203C4020933D4030933E4020E820930604CC
S1134E308130910539F078F08230910531F0039793
S1134E4039F00BC068E270E108C060E070E105C0B1
S1134E5068E170E102C060E370E183E00E94B6267D
S1134E6020913D4030913E402150310940913F40D6
S1134E70509140404150510960E070E080E090E082
S1134E800E94C126C0913B40D0913C40219760E0F4
S1134E9070E082E30E94B626BE0181E30E94B6263A
S1134EA060E070E083E30E94B62680E88093050406
S1134EB0DF91CF9108950F931F93CF93DF93C0E4B5
S1134EC0D4E0898180648983E4E4F4E080818064AF
S1134ED0808389818061898380818061808300E00F
S1134EE014E0F801818180688183E4E0F4E080814A
S1134EF0806880830E94742680E48D83EFE2F5E766
S1134F003197F1F700C000008E83FFE329E131E01F
S1134F10F15020403040E1F700C000008D838FE362
S1134F2099E1E1E081509040E040E1F700C00000E9
S1134F30C0E8F801C6836CE171E081E00E94B62606
S1134F4060E071E082E00E94B62660E370E183E0F5
S1134F500E94B62668E078E088E00E94B62660E009
S1134F6071E18BE00E94B62660E070E08CE00E9464
S1134F70B62661E07FE08FE00E94B6268FE59AEEC8
S1134F800197F1F700C0000060E070E085E10E9445
S1134F90B62660E070E080E20E94B62660E070E031
S1134FA081E20E94B6269FE7E9EAF3E09150E040EF
S1134FB0F040E1F700C0000060E078E080E10E948A
S1134FC0B6266FE37FE181E10E94B6262FE739EA36
S1134FD083E0215030408040E1F700C0000061E2EE
S1134FE071E082E10E94B6266FE670E083E10E94E0
S1134FF0B62669E473E484E10E94B62660E070E0BA
S113500080E30E94B6266BED70E081E30E94B62631
S113501060E070E082E30E94B62660E070E083E323
S11350200E94B6266BED70E084E30E94B62660E031
S113503070E085E30E94B6266FEA70E086E30E9482
S1135040B62660E070E087E30E94B6266BED70E060
S113505088E30E94B62660E070E089E30E94B626E9
S113506061E070E080E50E94B6266BE070E281E5C5
S11350700E94B62660E070E082E50E94B62664E0F5
S113508074E083E50E94B6266CE07CE084E50E942F
S1135090B6266CE070E085E50E94B62661E071E01A
S11350A086E50E94B62660E074E087E50E94B62695
S11350B068E071E188E50E94B6266CE075E089E558
S11350C00E94B6269FE7E9EAF3E09150E040F04001
S11350D0E1F700C0000067E170E187E00E94B626B6
S11350E082E20E949C2680E00E94EC26F801C5839F
S11350F081E08093004080EB90E080933740909370
S113510038408CED90E080933B4090933C40DF919D
S1135110CF911F910F910895EF92FF920F931F93D8
S1135120CF93DF938C0180E880930604809139400B
S113513090913A409C012170332780FF05C0409133
S11351403B4050913C4004C040913740509138401E
S113515040933F4050934040232B29F02091374007
S11351603091384004C020913B4030913C40209322
S11351703D4030933E40215031094150510960E097
S113518070E080E090E00E94C126E12CF12C11C077
S1135190C8010E94A926219602C0C0E0D0E08091F7
S11351A03B4090913C40C817D90790F38FEFE81A21
S11351B0F80A8091374090913840E816F90668F370
S11351C080E880930504DF91CF911F910F91FF90A8
S11351D0EF900895EF92FF921F93CF93DF93209166
S11351E0394030913A40D901A170BB2720FF03C058
S11351F0262F372F02C0282F392FF22FE32FAB2B66
S113520019F0282F392F02C0262F372FB22FA32FA2
S1135210992324F1772314F12091374030913840B9
S113522028173907D8F080913B4090913C4086176D
S11352309707A0F07A01C0E0D4E010E81E832B2F7A
S11352403A2F4F2F5E2F6B2F7A2F8F2F9E2F0E9476
S1135250C126B70182E20E94B6261D83DF91CF9159
S11352601F91FF90EF9008953F924F925F926F923B
S11352707F928F929F92AF92BF92CF92DF92EF92E2
S1135280FF920F931F93CF93DF937C012B018091A7
S1135290394090913A40BC016170772780FF03C088
S11352A0922F832F02C0942F852FC92ED82E672BBF
S11352B011F0242F352F622E732EC70107964C014F
S11352C01AF427E0820E911C959487949594879400
S11352D095948794A12CB12C312C41C0CE018770B8
S11352E09927892B11F0330C1AC0A89CF001A99CB2
S11352F0F00DB89CF00D1124CE01DD230CF40796BB
S1135300959587959595879595958795E80FF91FB8
S1135310EE0FFF1FEE0FFF1FE00FF11F349033203D
S11353204CF44FEF5FEFB301CE018C0D9D1D0E9435
S1135330EA2808C040E050E0B301CE018C0D9D1D69
S11353400E94EA28219602C0C0E0D0E0CE15DF0515
S11353502CF28FEFA81AB80A2FEF621A720AA4145B
S1135360B50494F3DF91CF911F910F91FF90EF90CB
S1135370DF90CF90BF90AF909F908F907F906F9071
S11353805F904F903F9008952F923F924F925F927B
S11353906F927F928F929F92AF92BF92CF92DF9241
S11353A0EF92FF920F931F93CF93DF9300D000D01F
S11353B0CDB7DEB78B839C837B016A0109831A8393
S11353C0C901861B970B8C0122F400271127081BA7
S11353D0190BC6014B815C81841B950B5C0122F483
S11353E0AA24BB24A81AB90AA016B1065CF49C2D01
S11353F08D2D6901292F382F9B818C81EB82FC82B2
S1135400E92EF82E8B819C81C816D90658F49E2D5E
S11354108F2D7901292F382F9B818C81CB82DC82BF
S1135420C92ED82EC6014B815C81841B950B1C01AF
S1135430A9014E195F093A0122F466247724641AFB
S1135440750A4C0133201CF45FEF851A950A959474
S11354508794E216F30620F444244394512C22C08A
S113546044244A94542C1EC0A016B10644F4498125
S11354705A816B817C81C7010E94EA2807C0498157
S11354805A81B7018B819C810E94EA28861897086B
S113549022F4E40CF51C820C931C8B819C810196F4
S11354A08B839C834B815C81C416D506E8F62496D5
S11354B0CDBFDEBFDF91CF911F910F91FF90EF9091
S11354C0DF90CF90BF90AF909F908F907F906F9020
S11354D05F904F903F902F900895CF93DF93CDB777
S11354E0DEB72E97CDBFDEBF95E288ED84BF9093E3
S11354F0680078940E945B2780E090E00E948C28EA
S11355000E94742680E00E94EC2606E011E020E070
S113551030E040E050E06CED70E080EB90E00E9401
S113552034292DE230E02D873E87B6C02D853E8597
S1135530B901330F880B990B0E94B62C27EA37EE7A
S11355404EE85CE30E94812D6B017C010E94EE2DEC
S113555020E030E048E452E40E94812D20E030E075
S11355604CED52E40E94142C4B015C010E94852CEA
S11355702B013C01C701B6010E94802C20E030E0E1
S113558048E452E40E94812D20E030E04CED52E4E6
S11355900E94142C6B017C010E94852C69837A8300
S11355A08B839C8300E018EF920149815A816EE657
S11355B070E08EE690E00E94C42920E030E040E8EC
S11355C05FE3C501B4010E94142C0E94852C6D83F5
S11355D07E838F83988720E030E040E85FE3C70153
S11355E0B6010E94142C0E94852C69877A878B87C8
S11355F09C872D813E8149855A856EE670E08EE652
S113560090E00E94C42920E030E040E050E4C5016D
S1135610B4010E94142C0E94852C4B015C0120E0F3
S113562030E040E050E4C701B6010E94142C0E940F
S1135630852C6B017C019401AB016EE670E08EE673
S113564090E00E94C4298FE59AEE0197F1F700C01B
S1135650000000E010E0920149815A816EE670E09A
S11356608EE690E00E94C4292D813E8149855A85A9
S11356706EE670E08EE690E00E94C4299401A601D3
S11356806EE670E08EE690E00E94C4292D853E858A
S11356902F5F3F4F2D873E878D859E858D329140AC
S11356A00CF444CF8CE291E08D879E87B6C02D85A3
S11356B03E85B901330F880B990B0E94B62C27EA5B
S11356C037EE4EE85CE30E94812D6B017C010E9461
S11356D0EE2D20E030E048E452E40E94812D20E0E9
S11356E030E04CED52E40E94142C4B015C010E940A
S11356F0852C2B013C01C701B6010E94802C20E0BF
S113570030E048E452E40E94812D20E030E04CED8A
S113571052E40E94142C6B017C010E94852C698345
S11357207A838B839C8300E018EF920149815A812C
S11357306EE670E08EE690E00E94C42920E030E03E
S113574040E85FE3C501B4010E94142C0E94852C3B
S11357506D837E838F83988720E030E040E85FE3A9
S1135760C701B6010E94142C0E94852C69877A8790
S11357708B879C872D813E8149855A856EE670E032
S11357808EE690E00E94C42920E030E040E050E43E
S1135790C501B4010E94142C0E94852C4B015C01AC
S11357A020E030E040E050E4C701B6010E94142C30
S11357B00E94852C6B017C019401AB016EE670E0C4
S11357C08EE690E00E94C4298FE59AEE0197F1F7E6
S11357D000C0000000E010E0920149815A816EE6A9
S11357E070E08EE690E00E94C4292D813E814985B7
S11357F05A856EE670E08EE690E00E94C42994011A
S1135800A6016EE670E08EE690E00E94C4292D8524
S11358103E85215031092D873E878D859E858D9744
S11358200CF045CF7ECE5058BB27AA270E942B2CC4
S11358300C94332D0E94FA2C38F00E94012D20F094
S113584039F49F3F19F426F40C94F72C0EF4E095E8
S1135850E7FB0C94F12CE92F0E94582D58F3BA174A
S1135860620773078407950720F079F4A6F50C9472
S11358707A2D0EF4E0950B2EBA2FA02D0B01B90151
S113588090010C01CA01A0011124FF27591B99F0B2
S1135890593F50F4503E68F11A16F040A22F232FBE
S11358A0342F4427585FF3CF469537952795A7950E
S11358B0F0405395C9F77EF41F16BA0B620B730BB5
S11358C0840BBAF09150A1F0FF0FBB1F661F771F26
S11358D0881FC2F70EC0BA0F621F731F841F48F4DB
S11358E0879577956795B795F7959E3F08F0B0CF64
S11358F09395880F08F09927EE0F9795879508954B
S11359000E940A2DE3950C94442D0E94602D88F08A
S11359109F5798F0B92F9927B751B0F0E1F0660F6F
S1135920771F881F991F1AF0BA95C9F714C0B130B0
S113593091F00E947A2DB1E008950C947A2D672F8E
S1135940782F8827B85F39F0B93FCCF386957795DF
S11359506795B395D9F73EF49095809570956195C8
S11359607F4F8F4F9F4F0895E89409C097FB3EF4F3
S113597090958095709561957F4F8F4F9F4F992398
S1135980A9F0F92F96E9BB279395F6958795779516
S11359906795B795F111F8CFFAF4BB0F11F460FFD6
S11359A01BC06F5F7F4F8F4F9F4F16C0882311F02E
S11359B096E911C0772321F09EE8872F762F05C042
S11359C0662371F096E8862F70E060E02AF09A95DD
S11359D0660F771F881FDAF7880F9695879597F9D2
S11359E0089597F99F6780E870E060E008959FEF5D
S11359F080EC089500240A94161617061806090662
S1135A00089500240A941216130614060506089530
S1135A100C94F72C0E94602DD8F3E894E0E0BB27A7
S1135A209F57F0F02AED3FE049EC06C0EE0FBB0FA4
S1135A30661F771F881F28F0B23A6207730784072E
S1135A4028F0B25A620B730B840BE3959A9572F7A4
S1135A50803830F49A95BB0F661F771F881FD2F7E2
S1135A6090480C94F82D092E0394000C11F488230B
S1135A7052F0BB0F40F4BF2B11F460FF04C06F5F02
S1135A807F4F8F4F9F4F0895EF93E0FF07C0A2EA27
S1135A902AED3FE049EC5FEB0E942B2C0E94332D52
S1135AA00F90039401FC9058E8EEF0E00C94042E5F
S1135AB057FD9058440F551F59F05F3F71F04795BB
S1135AC0880F97FB991F61F09F3F79F087950895A0
S1135AD0121613061406551FF2CF4695F1DF08C0BF
S1135AE0161617061806991FF1CF869571056105DC
S1135AF008940895E894BB2766277727CB0197F984
S1135B0008950E94942D0C94332D0E94FA2C38F0A1
S1135B100E94012D20F0952311F00C94F12C0C948B
S1135B20F72C11240C947B2D0E94582D70F3959F13
S1135B30C1F3950F50E0551F629FF001729FBB2780
S1135B40F00DB11D639FAA27F00DB11DAA1F649F1C
S1135B506627B00DA11D661F829F2227B00DA11DCF
S1135B60621F739FB00DA11D621F839FA00D611D55
S1135B70221F749F3327A00D611D231F849F600D76
S1135B80211D822F762F6A2F11249F5750409AF09F
S1135B90F1F088234AF0EE0FFF1FBB1F661F771F2B
S1135BA0881F91505040A9F79E3F510580F00C94F6
S1135BB0F12C0C947B2D5F3FE4F3983ED4F386954F
S1135BC077956795B795F795E7959F5FC1F7FE2B96
S1135BD0880F911D9695879597F908959F930E9434
S1135BE00A2D0F9007FCEE5F0C94442D9F3F31F07B
S1135BF0915020F4879577956795B795880F911DF7
S1135C009695879597F908959F938F937F936F93B4
S1135C10FF93EF939B01AC010E94812DEF91FF91C3
S1135C200E94182E2F913F914F915F910C94812DDA
S1135C30DF93CF931F930F93FF92EF92DF927B0139
S1135C408C01689406C0DA2EEF010E94942DFE01A7
S1135C50E894A5912591359145915591A6F3EF01CD
S1135C600E942B2CFE019701A801DA9469F7DF90BA
S1135C70EF90FF900F911F91CF91DF910895F894C9
S1055C80FFCF50
S1055C82030019
S9030000FC
